{
  "transactions": [
    {
      "hash": "0x407f51d491fe8ed2fb47e9db128ed1949e07448dc6602c957316600c503ed857",
      "transactionType": "CALL",
      "contractName": null,
      "contractAddress": "0x1030aFaA62BcD43de6273D89b1c127C642d5A63F",
      "function": "verifyFrameActionBodyMessage(bytes32,bytes32,bytes32,bytes)",
      "arguments": [
        "0x4fe8406370be9f8cbaddc6f0e909b2fc75c9d1f56d19395f9a90d9741b4f42d0",
        "0x68c44d89761d24d6a33f9fc0373a4fbc047c9f22835177d1a5eb33c91a0f2687",
        "0xbe15a695fc7039845d9ce37f87d850cdef7f16b944a3d6f92a09825cb7a0fd09",
        "0x080d1095c90218e3d8a52e20028201330a1368747470733a2f2f6578616d706c652e636f6d10011a1a0895c902121473a773451c6b36d0a8dc8c806407a8a3f5f7da9e"
      ],
      "transaction": {
        "type": "0x02",
        "from": "0xfd896bf5eba7e1b9843b91ef6182de16b547273b",
        "to": "0x1030afaa62bcd43de6273d89b1c127c642d5a63f",
        "gas": "0x1b7a4e",
        "value": "0x0",
        "data": "0x69c20bdd4fe8406370be9f8cbaddc6f0e909b2fc75c9d1f56d19395f9a90d9741b4f42d068c44d89761d24d6a33f9fc0373a4fbc047c9f22835177d1a5eb33c91a0f2687be15a695fc7039845d9ce37f87d850cdef7f16b944a3d6f92a09825cb7a0fd0900000000000000000000000000000000000000000000000000000000000000800000000000000000000000000000000000000000000000000000000000000043080d1095c90218e3d8a52e20028201330a1368747470733a2f2f6578616d706c652e636f6d10011a1a0895c902121473a773451c6b36d0a8dc8c806407a8a3f5f7da9e0000000000000000000000000000000000000000000000000000000000",
        "nonce": "0x17",
        "accessList": []
      },
      "additionalContracts": [],
      "isFixedGasLimit": false
    }
  ],
  "receipts": [],
  "libraries": [],
  "pending": [
    "0x407f51d491fe8ed2fb47e9db128ed1949e07448dc6602c957316600c503ed857"
  ],
  "returns": {},
  "timestamp": 1706548145,
  "chain": 8453,
  "multi": false,
  "commit": "e5f28ad"
}